:100000000C94D1020C9409030C9409030C94090379
:100010000C9409030C9409030C9409030C94090330
:100020000C9409030C9409030C94701D0C942C1D62
:100030000C946D1E0C9409030C9409030C94090391
:100040000C9409030C94C21E0C9409030C9409032C
:100050000C94941E0C94491E0C9409030C940903EF
:100060000C9409030C9409030C9409030C940903E0
:100070000C9409030C9409030C9409030C940903D0
:100080000C9409030C9409030C9409030C940903C0
:100090000C9409030C9409030C9409030C940903B0
:1000A0000C9409030C9409030C94090329003A00E9
:1000B0003D003E0041004200A600450048003B00D4
:1000C0003C003F00400064004300440046004700FD
:1000D00035001E0021002200250026002E002A00E7
:1000E0004A001F0020002300240027002D002A00C2
:1000F00049004B002B001400150017000C001200E3
:10010000300031004E001A0008001C0018001300D7
:100110002F0064004C004D003900040009000A0063
:100120000E000F00320028000000160007000B0030
:100130000D0033003400640064006400E1001B0023
:100140000600110010003800E500640064001D0086
:1001500064000500190037003600640001005200F9
:10016000E000E300640064006900E6006400500001
:100170005100E20064002C00640064006400E700A9
:10018000E4004F0001000100010020782378267868
:10019000010027780478010001002178247801000B
:1001A0002578287802780378010001000100010019
:1001B0000100010001000100010001000100010037
:1001C00001000100010001000100A900010001007F
:1001D000007C01000100010001000100AA000100F3
:1001E000010001000100010001000100AE00AB00B0
:1001F00001000100010001000100010001000100F7
:1002000000000100010001000100010001000100E7
:1002100001000100010001000100010001000100D6
:1002200001000100010001000100010001000100C6
:1002300001000100010001000100010001000100B6
:1002400001000100010001000100010001000100A6
:100250000100010001000100010001001E0F050066
:10026000047F3F1F643214643214783C1E1E140A4B
:100270000500010101010101010101020202020266
:10028000020202020303030303030303040404043E
:100290000404040505050505060606060607070706
:1002A000070708080808090909090A0A0A0B0B0BBD
:1002B0000C0C0C0D0D0D0E0E0E0F0F0F101011115A
:1002C00011121213131414151516161717181819DE
:1002D000191A1A1B1B1C1D1D1E1E1F202021222245
:1002E000232424252626272829292A2B2C2D2D2E88
:1002F0002F30313232333435363738393A3B3C3DA2
:100300003E3F404142434445464748494A4C4D4E92
:100310004F50515354555658595A5B5D5E5F616258
:1003200064656668696B6C6D6F7072737577787AE7
:100330007B7D7E8082838587888A8C8E8F91939542
:1003400096989A9C9EA0A2A3A5A7A9ABADAFB1B366
:10035000B5B7BABCBEC0C2C4C6C9CBCDCFD1D4D646
:10036000D8DBDDDFE2E4E7E9EBEEF0F3F5F8FAFDE8
:10037000FFFFAA7F55402223252628292A2C2D2F2E
:100380003032333536383A3B3D3E404243454749AB
:100390004A4C4E5051535557595A5C5E60626466E0
:1003A00068696B6D6F71737577797B7D7F818385EC
:1003B00087898A8C8E90929496989A9C9E9FA1A3EE
:1003C000A5A7A8AAACAEAFB1B3B4B6B8B9BBBCBE12
:1003D000BFC1C2C3C5C6C7C9CACBCCCDCED0D1D28E
:1003E000D2D3D4D5D6D7D7D8D9D9DADADBDBDBDC90
:1003F000DCDCDCDCDDDDDDDDDCDCDCDCDCDBDBDB3C
:10040000DADAD9D9D8D7D7D6D5D4D3D2D2D1D0CE9B
:10041000CDCCCBCAC9C7C6C5C3C2C1BFBEBCBBB9A0
:10042000B8B6B4B3B1AFAEACAAA8A7A5A3A19F9E1E
:100430009C9A98969492908E8C8A89878583817FE6
:100440007D7B79777573716F6D6B696866646260C7
:100450005E5C5A5957555351504E4C4A4947454393
:1004600042403E3D3B3A3836353332302F2D2C2A30
:1004700029282625232205010902A1018502090157
:10048000A100050919012908150025019508750124
:1004900081020501093009311581257F9502750812
:1004A000810609381581257F950175088106050C9F
:1004B0000A38021581257F950175088106C0C0059F
:1004C000010980A101850319012AB700150126B78A
:1004D00000950175108100C0050C0901A10185047A
:1004E00019012AA002150126A002950175108100AC
:1004F000C005010906A101050719E029E715002536
:10050000019508750181029501750881010507199A
:100510000029FF150026FF009506750881000508D3
:100520001901290595057501910295017503910140
:10053000C009023B00020100A0FA09040000010307
:10054000010100092111010001224000070581037A
:100550000800010904010001030000000921110144
:100560000001227B00070582032000011201000226
:1005700000000008D804A2EC0100010200010803F9
:1005800068003800380000001403680069006E003D
:1005900065007900620075007300680000000403C4
:1005A000090411241FBECFEFDAE0DEBFCDBF04B6D1
:1005B00003FE18C08091720390917303A09174039D
:1005C000B09175038730904BA740B04B59F410920F
:1005D0007203109273031092740310927503E0E09B
:1005E000F8E3099523E0A0E9B1E001C01D92A2372C
:1005F000B207E1F711E0A0E0B1E0ECE3F9E402C0FA
:1006000005900D92A039B107D9F70E94C41E0C9431
:1006100048240C940000E8EDF0E080818E7F808318
:100620001092E2001092DA001092E100A0EEB0E029
:100630008C9181608C9380818F77808319BCA7ED2A
:10064000B0E08C918E7F8C9380818F7E808310921E
:10065000580308952091E4003091E50095E6A90142
:100660002091EC00822F817020FF06C08091E8006D
:1006700080FF06C080E008952091E80022FD1AC0A6
:1006800080916503882389F0853089F08091EB00A3
:1006900085FD0FC02091E4003091E500421753071B
:1006A000F9F29150E1F684E0089582E0089583E044
:1006B000089581E008958091670387FF13C08091BA
:1006C000E80082FF06C08091E8008B778093E80005
:1006D00004C0809165038111F2CF08958091650374
:1006E0008823D9F38091E80080FFF8CF8091E8005B
:1006F0008E77ECCF982F9093E900242F762F50E03F
:10070000891731F07091EC002091ED005091F000CC
:1007100021FD07C09F5F973071F78093E90081E06A
:1007200008953091EB003E7F3093EB003091ED0067
:100730003D7F3093ED003091EB0031603093EB0062
:100740007093EC002093ED005093F0002091EE00A8
:1007500027FDE0CF80E00895B0E0A0E0E2EBF3E019
:100760000C94FA22C8EDD0E088818F7E8883E7ED73
:10077000F0E080818160808384E082BF81E08093AB
:10078000580388818E7F888302EE10E0F801108282
:100790001092DA0081EEC82ED12CF60110828881E9
:1007A0008F77888388818068888388818F7D88831C
:1007B00019BC1092650310926603109264031092A4
:1007C000630390EEE92EF12CF70180818B7F80830B
:1007D00088818160888342E060E080E00E947A0343
:1007E000F60180818E7F8083F80180818160808323
:1007F000808188608083F70180818E7F80838881FB
:1008000080618883CDB7DEB7E8E00C941623FC0145
:1008100080916D0390916E0386179707A0F0611584
:10082000710529F49091E8009E779093E80090E09C
:100830006115710551F4911108C08091E80082FFA3
:1008400034C080E00895BC01F2CF80916503882315
:10085000C1F18530C1F18091E80083FD30C0809105
:10086000E80082FDEACF8091E80080FFE1CF80912F
:10087000F3002091F200382F6115710519F028302E
:10088000310558F091E02830310509F090E02091D1
:10089000E8002E772093E800CBCF81918093F10080
:1008A000615071092F5F3F4FE7CF80916503882327
:1008B00041F0853041F08091E80083FFBECF81E0B8
:1008C000089582E0089583E0089580915A03089581
:1008D0009C014FB7F8948091540390915503A091D7
:1008E0005603B09157034FBF821B930B08952FB748
:1008F000F8948091540390915503A0915603B091C0
:1009000057032FBF0895A3E0B0E0E9E8F4E00C94AA
:100910000023209151033091520328173907A1F089
:100920009093520380935103E0914F03F091500351
:10093000309751F024E029839B838A830680F781D6
:10094000E02DCE01019609952396E2E00C941C233C
:10095000A3E0B0E0EEEAF4E00C94002320914D0314
:1009600030914E0328173907A1F090934E038093DE
:100970004D03E0914F03F0915003309751F023E085
:1009800029839B838A830680F781E02DCE0101961F
:1009900009952396E2E00C941C23E0914F03F0911B
:1009A0005003309729F00190F081E02D09950895CA
:1009B00080E008958F929F92AF92BF92EF92FF9244
:1009C0000F931F93CF93DF93843008F042C08111BF
:1009D00041C02091880030918900232B51F09091E3
:1009E0006F009D7F90936F0090916F009E7F90931A
:1009F0006F007698A0918600B0918700282F30E094
:100A00000E94392423E030E040E050E00E941724A7
:100A100089019A0180918600909187006CE070E0D6
:100A20000E94B3226017710730F1C80169E070E0DD
:100A30000E94B3227093890060938800DF91CF9168
:100A40001F910F91FF90EF90BF90AF909F908F906C
:100A5000089583E02091880030918900232B51F67E
:100A600090916F00926090936F0090916F009160F1
:100A700090936F00BFCF8091860090918700E090A7
:100A80008600F0908700E0918600F0918700C6E034
:100A9000D0E0BE010E94B322060F171F211D311D99
:100AA0004801590185E0880C991CAA1CBB1C8A9539
:100AB000D1F7C701BE010E94B3229F0150E040E080
:100AC000260F371F411D511DC501B4010E94172477
:100AD00049015A01E0918600F0918700CA01B901ED
:100AE0000E9489229B01AC01DF010E9404249B012A
:100AF000AC01C501B4010E9489222FE0969587952B
:100B0000779567952A95D1F7009186001091870017
:100B100030E020E0061717072807390708F08ACFCA
:100B2000609186007091870085CFFA01811101C024
:100B3000FB0109950895089580914703982F9E7FA2
:100B400029F4817082608093470308958635E8F325
:100B500081708465F8CFAF92BF92DF92EF92FF92DF
:100B60000F931F93CF93DF93082F162FE901E42FE4
:100B7000F0E0EF58FD4F611110C0E4915E2F4E2F51
:100B80004983E8835A83DF91CF911F910F91FF90A2
:100B9000EF90DF90BF90AF900895E62EF12C449136
:100BA000D42EE42FF0E026E0829FC00111242FEF25
:100BB00030E0B9010E94B322802F90E0880F991F86
:100BC00055E5569FD001579FB00D11248A1B9B0BF2
:100BD000982F990F890F5901AE18BF08AE9ED0010A
:100BE000AF9EB00DBE9EB00D11245B2F189F8001EB
:100BF0001124012F11275901A01AB10AAE9E8001BC
:100C0000AF9E100DBE9E100D11245901A81AB108F7
:100C1000AE9CC001AF9C900DBE9C900D1124892FFD
:100C20009927281B390B2E9FC0012F9F900D3E9FA7
:100C3000900D1124E92F62307105A1F050F4611577
:100C4000710509F49DCF6130710581F0EB2F512FB3
:100C500097CF6430710569F080F06630710509F452
:100C60008FCFF4CFE42F4B2F592F8ACFE42F412F72
:100C700087CFEB2F542F492F83CF4B2F5D2DE12FA3
:100C80007FCF0E9477049C01909178028091790235
:100C9000982B21F0309375022093740290917A0280
:100CA00080917B02982B21F0309373022093720283
:100CB000E0914F03F0915003309749F082E0809328
:100CC00076020480F581E02D86E792E0099508958B
:100CD0008091710280FD16C081FD16C082FD16C094
:100CE000809170028823A1F0883280F428E0829FEE
:100CF000C001112468E270E00E94C722862F672B92
:100D000039F0089582E0089584E0089588E0089518
:100D100081E008958091710280FD14C081FD14C0AE
:100D200082FD16C080916F02882381F08E3180F49D
:100D300020E5829FC00111246EE170E00E94C7226D
:100D4000862F089584E1089588E2089588E0089543
:100D500080E5089580E00895F894E82FE295EF701B
:100D6000F0E031A1282F2F7081E090E001C0880FC2
:100D70002A95EAF7982F9095932391A392A1892B16
:100D800082A3789408959091360292FF06C0282F8E
:100D900028712830F9F4877F846093FF06C0282FDC
:100DA00028712831F1F4877E84612091370220FF79
:100DB00006C0382F38713830D9F4877F816021FF21
:100DC00006C0282F28712831D1F4877E816194FDD7
:100DD000877E0895282F24712430F9F68B7F886050
:100DE000DCCF282F2471243101F78B7E8861DDCF81
:100DF000382F3171313019F78E7F8860E0CF282F7E
:100E00002171213121F78E7E8861E1CF972F7C30CF
:100E1000B8F46930A8F4823098F470E029E0929F29
:100E2000600D711D1124FB019CE6899FE00DF11DF1
:100E30001124EE0FFF1FE455FF4F85919491089503
:100E400080E090E00895CF93DF93EC018238910524
:100E5000B9F108F041C08133910509F49FC050F504
:100E60008932910509F48FC08A9709F49EC0C11593
:100E700020E5D20708F0BDC0C11530E4D30708F063
:100E80000AC1C03ED10508F0A5C0CD3CD10508F08F
:100E900000C1C83AD10508F08FC0C53AD10508F0A5
:100EA000F0C0C130D10539F1209729F1C430D10506
:100EB00010F546C08533910509F460C0C997B9F6AD
:100EC00080913602837009F044C18091370283FF1C
:100ED00012C0C9E2D0E00FC0833E9105A1F178F4C1
:100EE000803E910509F1823E910509F0C0CF8091C5
:100EF000360282FD21C0CE01DF91CF910895863E5A
:100F0000910561F1873E910571F1843E910509F0EB
:100F1000AECF8091370281FFEECF80913602C7EECF
:100F2000D0E084FD0DC0E7CF8091360280FD33C054
:100F30009091370290FFDFCFC3EED0E084FFDBCF8C
:100F4000D0E0C0E0D8CF8091360282FDFFC0909102
:100F5000370290FDFEC084FFCECFF2CF80913602E3
:100F600083FDDDCFC8CF8091360283FDF5C090911F
:100F7000370291FFF0CFC4EED0E0BDCF80913602B2
:100F800085FFB9CFA6CF8091360285FDE8C080915C
:100F9000370283FFB0CFC9E3D0E0ADCF80913602F6
:100FA00086FFA9CFCAE2D0E0A6CF8091360286FFA5
:100FB000A2CFC1E3D0E09FCFC13CD10508F6C85A0B
:100FC000D0E0CC0FDD1FC25EDE4F0990D881C02D6E
:100FD000D46491CFC11540E2D40708F0AAC0C1156E
:100FE00081E0D80708F087CFC83ED10508F483CF49
:100FF000A7CFC03622E5D20718F5C03432E5D307B3
:1010000008F053C0C03242E5D40708F047C0C1150C
:1010100082E5D80708F47FC02C2F2695269540E25C
:10102000249F900111248C2F8370C1E0D0E002C076
:10103000CC0FDD1F8A95E2F7C22BD32BDD685BCF87
:10104000C03A22E5D20760F4C03832E5D30708F48D
:1010500041C0CF71D0E0DC2FCC27C46FD06A4BCF1A
:10106000C03C42E5D40708F44AC0C03E82E5D80738
:1010700008F066CFDC2FCC27CC27DF71C06FD06A99
:101080003ACFC55AD0E0C55EDE4FC881D0E0D0640B
:1010900032CFD06530CFDF70D06A2DCFCF71D0E0A6
:1010A000DC2FCC27C16FD06A26CF2C2F2695269512
:1010B000277080E2289F900111248C2F8370C1E05B
:1010C000D0E002C0CC0FDD1F8A95E2F7C22BD32BF4
:1010D000DC6811CF2C2F26952695277040E2249F9F
:1010E000900111248C2F8370C1E0D0E002C0CC0F9E
:1010F000DD1F8A95E2F7C22BD32BDA68FCCE8C2F4A
:101100008F710E94C306C82FD0E0DC2FCC27CC27DC
:10111000DF71D062F0CE8C2F8F710E94C30635E054
:10112000D695C7953A95E1F7CF709C2FEC01D06921
:10113000E2CE8D2F8F710E94C30690E0982F8827F2
:1011400088279F719C012C2BE901E3CFC2EED0E0F0
:10115000D2CEC0EED0E0CFCEC6EED0E0CCCEC5E34E
:10116000D0E0C9CE80911602811110921602089526
:101170008095909115029823909315020895E4E9C3
:10118000F1E09191891303C0DF0111971C9291E066
:10119000EA39F907B1F70895A4E9B1E0EFEF90E07B
:1011A0002D91821751F0EF3F19F4211101C0E92F61
:1011B0009F5F9630A9F7EF3F09F408950E2E000CBB
:1011C000FF0BEE56FE4F8283089580910A029091A4
:1011D000D901981301C008958F5F8770FACFB0E0EE
:1011E000A0E0E5EFF8E00C94F9227C0100913402D4
:1011F000109135028091170290911802082B192B3B
:10120000CFE0D0E0CC24C394D12CBC2EC6010C2E50
:1012100002C0880F991F0A94E2F780239123892B3B
:1012200049F4219790F7B12C8B2DCDB7DEB7E9E0CB
:101230000C941523B7018C2F0E9406070E942307E8
:10124000019779F3F1CFCF93DF93EC010E94EF0880
:10125000BE010E9406070E942307DF91CF910895E7
:101260009C3078F5893068F5E82FF0E089E0989FA8
:10127000E00DF11D11249E2F977083E0F695E79500
:101280008A95E1F7EE0FFF1FEE0FFF1FE556FE4FA9
:1012900050E040E080E0219130E0092E02C0369518
:1012A00027950A94E2F721703327042E01C0220FFC
:1012B0000A94EAF7822B4F5F5F4F4430510559F78C
:1012C000089580E008959C3098F5893088F5E82FDE
:1012D000F0E089E0989FE00DF11D11248E2F8770BA
:1012E00041E001C0440F8A95EAF783E0F695E7955F
:1012F0008A95E1F7EE0FFF1FEE0FFF1FE556FE4F39
:1013000030E020E070E05191DF011197CB01022E17
:1013100002C0969587950A94E2F78170819585279A
:10132000842385278C932F5F3F4F2430310559F755
:1013300008959093350280933402089521E030E0BF
:1013400002C0220F331F8A95E2F7209530958091D5
:10135000340290913502822393230E9499090895C3
:1013600090910B028095892380930B02282F277080
:1013700091F4282F082E000C330B9217130659F006
:101380009091370292FF07C08595859585950E94BB
:101390009E0910920B02089521E030E002C0220F56
:1013A000331F8A95E2F78091340290913502822BA7
:1013B000932B0E9499090895909318028093170225
:1013C0000895FC0183819481892B29F0808191818A
:1013D00089238F3F51F480E00895843FE1F717C0DF
:1013E000883EA8F0813FB9F712C0808191810E94A8
:1013F000230992959F70963099F358F4925F9F70ED
:10140000923048F7803F19F040F7883E20F781E09E
:1014100008959A5FF4CF662309F45DC08D3C41F4D2
:101420000E948A068195809379020E944106089560
:101430008E3C19F40E948A06F6CF8F3C31F40E944C
:101440008A06819580937802F0CF803D19F40E943E
:101450008A06F8CF893D29F40E94680680937A02B3
:10146000E4CF8A3D21F40E9468068195F7CF8B3D39
:1014700031F40E946806819580937B02D6CF8C3D23
:1014800019F40E946806F8CF9FE2980F983070F424
:10149000815D990B21E030E001C0220F8A95EAF7C7
:1014A00080917702822B80937702BFCF8D3D31F4FC
:1014B00080917102816080937102B7CF8E3D21F4DB
:1014C000809171028260F7CF8F3D09F0AECF80919D
:1014D00071028460F0CF409178028D3C59F4809184
:1014E000790287FF0DC01092790241110BC0109252
:1014F0006F0208C08E3C81F48091790218169CF32B
:10150000442381F080917A0290917B02892B09F02B
:101510008CCF1092700289CF8F3C49F447FFF0CFF7
:1015200010927802809179028111ECCFE0CF803D5A
:1015300019F41416ACF3E4CF90917A02893D29F4A2
:101540001916F4F610927A02DBCF8A3D19F497FF50
:10155000D7CFF8CF90917B028B3D29F497FFD0CF66
:1015600010927B02CDCF8C3D19F41916CCF3C8CF65
:101570009FE2980F983090F4815D990B21E030E064
:10158000B90102C0660F771F8A95E2F7CB018095FB
:1015900090917702892380937702B2CF8D3D31F409
:1015A000809171028E7F80937102AACF8E3D21F4CB
:1015B000809171028D7FF7CF8F3D09F0A1CF80918F
:1015C00071028B7FF0CF82FB992790F981FD05C0D6
:1015D0005F9A911104C0769A08955F98FACF769831
:1015E00008950F931F93CF93DF938B01EA0190919E
:1015F0006503943061F58093E9008FEF9091E800E6
:10160000815095FD06C095ED9A95F1F70000811186
:10161000F5CF8091E80085FF1AC00E942A0381114E
:1016200011C08091E80085FD06C08091E8008E77AA
:101630008093E800F2CFF80181918F018093F1004F
:10164000219779F78091E8008E778093E800DF9109
:10165000CF911F910F91089543E050E0BC0182E0CB
:101660000E94F10A089546E050E0BC0182E00E9429
:10167000F10A0895CF93DF93EC0148E050E0BC01FC
:1016800081E00E94F10A88E0FE01ABE5B3E0019041
:101690000D928A95E1F7DF91CF91089581E08093D3
:1016A000E00080E28093D8001092C9008FE19EE4B0
:1016B0000197F1F700C0000087E090EBDC01809318
:1016C000720390937303A0937403B093750388E13E
:1016D0009CE00FB6F894A895809360000FBE90939D
:1016E0006000FFCF8091470380FD0AC0E7E8F2E089
:1016F000118210821282339652E0EF3CF507C1F757
:10170000089A32B13E7F22B121604FB7F89487E842
:1017100092E0FC015191CF0168E022B9000000C0C5
:1017200057FF32B9550F000000C000C000C032B9E9
:1017300000C06A9591F7F2E08F3C9F0751F74FBFC9
:101740008FE594E00197F1F700C000000895EF9253
:10175000FF920F931F93CF93DF938C01C7E8D2E0E2
:10176000F12CE12CF80194816091490380914803A8
:10177000FCE0EF16F104ECF49923E9F09E014091AE
:101780004A030E94AB052FEFE21AF20A239688E182
:10179000E816F10439F70E94720BF801848190E099
:1017A0000196817099278483CDB7DEB7E6E00C946B
:1017B0001823992319F39E0140E0E3CFB0E0A0E0A5
:1017C000E4EEFBE00C94F622EC014C81042F10E0D7
:1017D0009801D8010E9439249B01AC010E94042485
:1017E0004B015C01E0E2F0E0E01BF10BA5E5B0E0AD
:1017F000AC019B010E9404246B017C019F01DF016D
:101800000E94E1229B01AC010E940F249B01AC01CC
:10181000280D391D4A1D5B1DC701B6010E94172402
:10182000F22E822F90E039E23F1598F143E0249F99
:101830009001112435952795122F109597E8C92E00
:1018400092E0D92E00E085E5E82EEF188E2D01FDFF
:101850008F2D9601412F609149030E94AB050F5FC8
:1018600053E0C50ED11C083189F70E94720B9C8190
:1018700081E0992319F0903219F48FEF80931901C8
:1018800080911901890F8C83CDB7DEB7ECE00C9401
:10189000122325E530E0A901481B590BCA019A0122
:1018A000220F331F280F391F37FFC4CF2F5F3F4F41
:1018B000C1CF0F931F93CF93DF93C7E8D2E0FE0110
:1018C000118210821282339682E0EF3CF807C1F752
:1018D00010E000E080918502082E000C990B08179B
:1018E00019078CF180911801082E000C990B8017B4
:1018F00091074CF19E0140914A0360914903809108
:1019000048030E94AB050F5F1F4F23960831110556
:1019100009F70E94720B8091170190918502980F30
:101920009093850220911801280F20931801121618
:1019300014F497311CF0819580931701DF91CF91BA
:101940001F910F910895198218821A82DCCFB0E09E
:10195000A0E0EDEAFCE00C94F922FC018281DD2498
:10196000DA9480FD02C0DD24D39407E812E0D0E0D1
:10197000C0E028E1B22EF80111821082128294E0B8
:10198000E92EF12CC12C809184028C0D8931C4F197
:101990006B2D0E94A522892F082E000C990B8C1705
:1019A0009D0791F480914A038E9DA0018F9D500D5B
:1019B0001124559547955595479598016091490390
:1019C000809148030E94AB05CD0CF1E0EF1AF108BD
:1019D000D1F621960D5F1F4FC831D10561F60E94E7
:1019E000720B8091840291E0D91210C081110CC059
:1019F00087E180938402CDB7DEB7E9E00C9415232C
:101A000087FFCACF885EC8CF8150F3CF90E00196A0
:101A1000BE010E94C722EDCFEF92FF921F93CF939A
:101A2000DF93EC0187E8E82E82E0F82E10E08C814D
:101A3000970140914A0360914903810F0E94AB05D1
:101A4000165F83E0E80EF11C103F89F70E94720BCD
:101A50009A818C8190FF08C08F5F8C83DF91CF913A
:101A60001F91FF90EF9008958150F7CF9091470319
:101A700090FF0CC0E7E8F2E08183608342833396F5
:101A800092E0EF3CF907C1F70E94720B0895A3E0C2
:101A9000B0E0EDE4FDE00C94FE228C018091860222
:101AA00081110AC09E012F5F3F4F4FEF6FEF0E94E1
:101AB000AB058A8180938602F8016481613069F008
:101AC0008091860240E0662361F040E0623011F4CC
:101AD0004091860280E060E004C06091860240E0B0
:101AE00080E00E94360DF801848190E0019663E069
:101AF00070E00E94C72284832396E4E00C941A23AA
:101B0000A3E0B0E0E6E8FDE00C94002390914703E9
:101B100090FF0AC09E012F5F3F4F0E94AB054B8193
:101B200069818A810E94360D2396E2E00C941C2381
:101B3000CF93DF93EC01E7E4F3E0438162818C8192
:101B40000E94800D8C818F5F8C83DF91CF910895EF
:101B5000CF93DF93EC01EC81F0E0EA58FC4F449125
:101B6000E7E4F3E0628181810E94800D8C818F5FC8
:101B70008C83DF91CF910895682F86E090E00E94DA
:101B8000B1230895B0E0A0E0E8ECFDE00C94F2226F
:101B9000FC016280448081E08483E6E7F3E0749096
:101BA000E5EFF3E0E49100914A030695015810E057
:101BB000000F111F012F1127CFECD2E027E8C22E12
:101BC00022E0D22E37E4832E33E0932EAA24AA9467
:101BD000B12C55245A94E719EE2EF12C82E086158B
:101BE00030F08091480388838091490389834110B4
:101BF00016C01B821A8296014A81698188810E94DF
:101C0000AB05259683E0C80ED11C8C169D0631F7D6
:101C10000E94720BCDB7DEB7E0E10C940E238B81EE
:101C20008823E9F081508B83859DC00111246C814C
:101C300070E00E94B322FB01FF27EA58FC4F849119
:101C4000E82FE719E59DC0011124B7010E94B322D6
:101C500080914A03689FB00111247A83CCCF0E94FF
:101C60007323B5010E94C7228017910724F682E0F2
:101C7000861588F40E947323B5010E94C7228883C9
:101C80000E947323209149032695622F70E00E94E1
:101C9000C722280F29831A8280914A03893C20F0A9
:101CA00088EC8C838B83A7CF8431D8F784E1F9CF7C
:101CB00060914703669570E04BE050E08CE091E066
:101CC0000E948323892B19F481E0809383020E9470
:101CD000770490937D0280937C020895CF92DF92E7
:101CE000EF92FF926B017C010E949C05B701A60157
:101CF00088E090E00E94C323FF90EF90DF90CF90A8
:101D00000895A3E0B0E0E7E8FEE00C94F322F82E9B
:101D1000762EE42E622E9091470390FF29C0E92F82
:101D2000E695AE2FB0E0AB59BE4F8C918093820206
:101D30009E7F923009F59E012F5F3F4F8F2D0E94AD
:101D4000AB054B8169818A810E94360DF092480370
:101D500070924903E0924A03662051F06091470374
:101D6000709148038091490390914A030E946E0E3E
:101D70002396EFE00C940F23823019F4E0904A038D
:101D8000E5CF863019F4F0904803E0CF8930D9F3DD
:101D90008931E1F6E9518E2F8170582EE695F0E0F9
:101DA000EF58FC4FE4910E2F10E087E8C82E82E038
:101DB000D82EB12CA12C98E1892E912CC501B4010B
:101DC0000E94B3228F2D511013C0860F96014E2D05
:101DD000672D0E94AB05A00EB11E83E0C80ED11C7A
:101DE0008FECC81682E0D80649F70E94720BAECF7E
:101DF000861BECCFE7E4F3E0438128E0421B08F4C4
:101E000040E021E0628181810E94810E0895E7E433
:101E1000F3E0438128E0420F08F44FEF21E06281B4
:101E200081810E94810E0895E7E4F3E0628128E059
:101E3000621B08F460E021E0438181810E94810EF1
:101E40000895E7E4F3E0628128E0620F08F46FEFA1
:101E500021E0438181810E94810E0895E7E4F3E04F
:101E6000818121E04381628188500E94810E089522
:101E7000E7E4F3E0818121E043816281885F0E9491
:101E8000810E089580914B03882319F0815080932F
:101E90004B036091470370914803809149039091EF
:101EA0004A030E946E0E089580914B03833018F40C
:101EB0008F5F80934B03609147037091480380913B
:101EC000490390914A030E946E0E08959091470332
:101ED00090FF2CC0917081112AC0926090934703AB
:101EE000662351F060914703709148038091490344
:101EF00090914A030E946E0E60914703669570E0D0
:101F00004BE050E08CE091E00E948323892BB1F0FC
:101F10001092830281E080937F0220E040914A0387
:101F200060914903809148030E94810E08958B328D
:101F300010F09465D3CF880F982BD0CF0E94580E05
:101F4000E9CF61E00E94660F08958091470386956E
:101F5000815009F48AE261E00E94660F0895809141
:101F6000470386958F5F8B3208F081E061E00E9425
:101F7000660F08959091470390FF08C096959817B3
:101F800028F0961718F40E94AF0F08950E94A10F31
:101F90000895E7E4F3E083E0808311828FEF82838A
:101FA0008383148260817181828193810E946E0E8D
:101FB00008958091150290911402892B80939201CB
:101FC00090911602992391F0892B8093920120E041
:101FD00084E991E0FC013191CF0131112F5FF1E0F3
:101FE0008A399F07B9F721110E94B20848E050E0F2
:101FF0006CE072E082E991E00E949023892BA9F0C5
:1020000088E0E2E9F1E0ACE0B2E001900D928A955F
:10201000E1F7E0914F03F0915003309731F00280E7
:10202000F381E02D82E991E009950895882321F05C
:102030000E94B8080E94D90F0895882339F0909122
:102040001502982B909315020E94D90F08958823AA
:1020500009F456C0823879F40E94CD0481FF50C043
:1020600089E30E94CC080E94D90F89E30E94BF082F
:102070000E94D90F0895833859F40E94CD0480FF3F
:102080003FC083E50E94CC080E94D90F83E5EECFC4
:10209000843859F40E94CD0482FF32C087E40E9444
:1020A000CC080E94D90F87E4E1CF9CEF980F913ABA
:1020B000E8F290E2980F983050F4877091E001C0F8
:1020C000990F8A95EAF7892F0E94B808D1CF9BE52E
:1020D000980F933028F490E080E00E94A8040895BF
:1020E00098E5980F993128F490E080E00E948304ED
:1020F000089593E3980F933118F460E00E940B0A5F
:102100000895CF93C82F8823C9F08238C9F40E945C
:10211000CD0481FD13C089E30E94CC080E94D90F31
:102120002FEF87EE93E0215080409040E1F700C010
:10213000000089E30E94BF080E94D90FCF91089543
:102140008338A1F40E94CD0480FDF8CF83E50E947E
:10215000CC080E94D90F2FEF81EE94E021508040EF
:102160009040E1F700C0000083E5E4CF8438A1F49B
:102170000E94CD0482FDE2CF87E40E94CC080E9439
:10218000D90F2FEF81EE94E0215080409040E1F78D
:1021900000C0000087E4CECF8CEF8C0F813A68F44A
:1021A000E4E9F1E08191C817E9F121E0EA39F207A9
:1021B000C9F78C2F0E94CC08BFCF80E28C0F8830EB
:1021C00068F4C77021E030E001C0220FCA95EAF739
:1021D00080911502822B80931502AECFEBE5EC0FB8
:1021E000E33040F4F0E0E55EFE4F808190E00E9435
:1021F000A804A4CFE8E5EC0FE93150F4F0E0EE0FCD
:10220000FF1FE25EFE4F808191810E94830496CF82
:1022100083E38C0F833108F091CF61E08C2F0E9413
:102220000B0A8CCF8C2F0E94BF080E94D90FC1CF00
:102230000F931F93CF93DF93C62FD42F022FFC0150
:1022400082818823A9F0609371030E9477049093A0
:10225000700380936F03C77081E001C0880FCA9537
:10226000EAF70E941D10DF91CF911F910F91089501
:1022700080917103681335C080916F039091700352
:102280000E946804883C910560F510E21D0FCD178F
:10229000B9F080E28C0F883040F4C77081E001C053
:1022A000880FCA95EAF70E941610183048F481E0AA
:1022B0009D2F977001C0880F9A95EAF70E941D1014
:1022C000802F0E948110802F0E942710183058F60E
:1022D000D77081E001C0880FDA95EAF70E941610E6
:1022E000C2CFC77081E001C0880FCA95EAF7F6CF68
:1022F00067EE7EEF90E080E00E94CF2360E082E016
:1023000090E00E94B12360E083E090E00E94B1235E
:10231000109218021092170260E074E184E090E0DD
:102320000E94CF2360E086E090E00E94B1236FEF2F
:1023300087E090E00E94B12340E050E0BA0188E0DD
:1023400090E00E94C32360E08DE090E00E94B12302
:1023500040E050E0BA0188E190E00E94C32360E0D1
:1023600087E190E00E94B12340E050E0BA018CE1A7
:1023700090E00E94C32370E060E080E290E00E9461
:10238000CF2340E050E0BA0188E190E00E94C323EF
:10239000E7E4F3E080818160808386950E94A10F4D
:1023A00021E040E86FEF80E00E94810E8BE00E9408
:1023B000A10F40E050E0BA018FE090E00E94C323FB
:1023C00040E050E0BA0183E190E00E94C323089509
:1023D00090E080E00E94AB23873E9E4F51F00E9428
:1023E000781180914C038470896180934C030E9422
:1023F000BC0D86E090E00E949D2380934C038032C8
:1024000020F08770886180934C0390914C03892F52
:10241000817090FF04C0892F8695869586950E94CD
:10242000DA0408959091370292FB222720F92817A9
:1024300079F080FB92F990933702609136027091A7
:10244000370284E090E00E94CF2382E00E94B0092E
:102450000895CF9310921502C6E0E4E9F1E0DF01A0
:102460008C2F1D928A95E9F790E080E00E94A804E5
:1024700090E080E00E948304109214020E94D90F21
:10248000E6E7F2E0DF011D92CA95E9F710926F02CC
:1024900010927002109271020E944106CF9108952D
:1024A000AAE2B0E0E6E5F2E10C94FF2287E693E0D1
:1024B0002091F100FC012193CF01F3E08F369F07BB
:1024C000B9F780916803833009F470C0B8F48130A3
:1024D00009F447C0823009F4B1C08091E80083FF5D
:1024E0007EC280916703909168039A3008F077C2AA
:1024F000E92FF0E0E65BFB4D0C94DB228A3009F417
:102500008CC08B3009F46FC0893039F78091670334
:10251000813219F780916B0390916C030297E8F672
:102520008091E800877F8093E8008091E80082FF37
:1025300038C09091F3008091F200029731F48091BD
:10254000F100813011F0863021F48091F100809308
:102550005A038091E8008B778093E8000E945B0328
:10256000BCCF80916703813A09F0B7CF8091E80032
:10257000877F8093E80080916B0390916C03892B97
:1025800061F468E08BE593E070E00E9407048091BD
:10259000E8008B778093E800A0CF60E090E080E0D7
:1025A000F3CF809165038111C0CF97CF80916703EE
:1025B000813A09F092CF80916B0390916C03892B43
:1025C00009F08BCF8091E800877F8093E8008091AD
:1025D000E80080FFFCCF80911A018093F100809188
:1025E000E8008E77B9CF80916703813209F075CF0B
:1025F00080916B0390916C03892B09F06ECF8091D1
:10260000E800877F8093E8000E945B038091690364
:1026100080931A010E94291260CF80916703813252
:1026200009F05BCF8091E800877F8093E8000E94EB
:102630005B0380916A03809359034FCF80916703B6
:10264000813A09F04ACF8091E800877F8093E800C3
:102650008091E80080FFFCCF80915903BECF803885
:1026600099F0823809F0BBC180916B038F7087307D
:1026700008F0B5C18093E9008091EB0085FB8827C5
:1026800080F91092E90006C0809163039091640381
:10269000911182609091E800977F9093E800809379
:1026A000F1001092F1008091E8008E7794C18823A8
:1026B00009F482C1823009F092C1809169038111CD
:1026C00085C180916B038F702FEF280F263008F0A3
:1026D00086C18093E9002091EB0020FF77C1933001
:1026E00031F48091EB0080628093EB006FC1909198
:1026F000EB0090619093EB0021E030E001C0220FED
:102700008A95EAF72093EA001092EA008091EB00A4
:102710008860EACF811163C1109169031F778091AE
:10272000E3008078812B8093E3008091E800877F2D
:102730008093E8000E945B038091E80080FFFCCF5B
:102740008091E30080688093E30082E0111183E0D0
:102750008093650344C18058823008F040C1809165
:10276000690390916A038C3D23E09207A1F583E011
:102770008A838AE289834FB7F894DE01139620E0BA
:102780003EE051E2E32FF0E050935700E49120FF48
:1027900003C0E295EF703F5FEF708E2F90E0EA305C
:1027A000C0F0C7968D939D932F5F243159F74FBF8B
:1027B0008091E800877F8093E8006AE270E0CE01B4
:1027C00001960E9407048091E8008B778093E800CF
:1027D00006C1C096E7CF40916B0350916C03292F3F
:1027E00033272330310509F444C078F52130310511
:1027F00009F46FC08BE390E0E1E3F5E022303105AE
:1028000009F0EDC02091E800277F2093E800209197
:102810006D0330916E038217930708F49C0140E02A
:102820002115310509F064C0411162C08091E800B2
:1028300082FDC9CF80916503882329F2853019F282
:102840008091E80083FFF2CFBECF21323105A9F19C
:102850002232310509F0C3C04115510509F443C0C6
:102860004130510509F0BBC08BE790E0E6E7F4E0AA
:10287000C9CF992781309105C1F0009759F002978F
:1028800009F0ADC0EEE7F5E0E4918E2F90E0EEE7C1
:10289000F5E007C0EEE9F5E0E4918E2F90E0EEE977
:1028A000F5E0009709F49BC0ADCFE8E8F5E0E491CE
:1028B0008E2F90E0E8E8F5E0F4CF4115510571F076
:1028C0004130510509F08BC089E090E0ECE5F5E07E
:1028D00099CF82E190E0ECE6F5E094CF89E090E0DA
:1028E000E3E4F5E08FCF80E490E0E1EFF4E08ACF1D
:1028F00080916503882309F466CF853009F463CF9E
:102900008091E80083FD5FCF8091E80082FD8ECF4B
:102910008091E80080FF84CF9091F3008091F200D5
:102920002115310519F08830910550F041E00897E4
:1029300009F040E08091E8008E778093E80070CF46
:1029400044914093F1003196215031090196E8CF2E
:10295000803809F044C08091E800877F8093E800C8
:10296000809166038093F1009ECE811138C0109152
:1029700069031230A0F58091E800877F8093E8001A
:10298000109366030E945B03112311F084E005C0DD
:102990008091E30087FDFACF81E08093650342E0F8
:1029A00061EC81E00E947A0342E261EC82E00E94E5
:1029B0007A038091650313C080916903813079F4B3
:1029C00081E0933009F080E0809364031092E90085
:1029D0008091E800877F8093E8000E945B038091EC
:1029E000E80083FF0AC08091E800877F8093E800B9
:1029F0008091EB0080628093EB00AA96E3E00C9458
:102A00001B230E9429122FEF84E39CE02150804079
:102A10009040E1F700C0000088E19CE00FB6F89418
:102A2000A895809360000FBE90936000FFCFA8E14F
:102A3000B0E0EDE1F5E10C94F6228E010F5F1F4F3F
:102A400088E1F80111928A95E9F790E5E92E91E085
:102A5000F92E6801AA24A394B12CF70181917F017A
:102A60008F3F09F446C0F894E82FE295EF70F0E04C
:102A700021A18F70A50102C0440F551F8A95E2F76E
:102A8000CA01922F982B91A392A18095892382A3AA
:102A9000789400C0ECE5F1E021E030E0912C812C4D
:102AA00041914F3F09F467C0A42FA295AF70B0E0E9
:102AB00090968C9190E04F7002C0959587954A95BD
:102AC000E2F780FD58C0C901882A992A220F331FD6
:102AD00051E0E536F50721F7F701319780818F3F07
:102AE00011F00E94AC0680EA8A95F1F7F601918216
:102AF0008082F2E0CF0ED11C4CE5E41641E0F406F2
:102B000009F0ABCF48E150E0B8018CE192E00E94BF
:102B10009023892B99F188E1F801ACE1B2E00190B2
:102B20000D928A95E1F781E080931B020E94770461
:102B300090931A02809319028091190290911A02BF
:102B40000E9468040597F0F048E150E06CE172E003
:102B50008DE392E00E949023892BC9F088E1ECE19B
:102B6000F2E0ADE3B2E001900D928A95E1F781E0E9
:102B700010921B0208C090E080E0A6CF80911B025B
:102B80008111DACF80E06896ECE00C94122380E0AB
:102B9000EFCFA5E0B0E0EFECF5E10C94F6227C017C
:102BA000FC0183819481892B31F08081918189237B
:102BB0008F3F09F0ACC42596ECE00C9412230E94E0
:102BC000EF08182F682F89819A810E946309698113
:102BD0007A81812F0E9406078C01F7018281882368
:102BE00009F4F4C40230F8E71F0709F4ADC058F542
:102BF000011538E7130709F446C0013088E71807C4
:102C000009F46AC0F801E851FC47E730F10508F41F
:102C1000E4C410927103C8019057839708F088C4E8
:102C200084E090E00E94AB239093370280933602B9
:102C3000F801E150F047E232F10508F0BEC0EC5A6D
:102C4000FB4D0C94DB22043098E7190709F468C0A7
:102C500008F44AC00530F8E71F07A1F690914C032D
:102C6000892F8695869586958F5F8F7197708430B2
:102C700008F082C0880F880F880F892B80934C033F
:102C800080914C0339C080914C0387708861809398
:102C90004C03887F91E009F490E080914C0390FB15
:102CA00080F980934C0383E00E94DA0480914C0306
:102CB0000E94BC0D80910B02877009F47CCFF70154
:102CC0008281882309F477CF8091370282FF73CF06
:102CD00082E00E94B0096FCF80914C0387708E7F95
:102CE00080934C0380E0E0CF80914C03982F987F35
:102CF00079F0885080934C03887F91E009F490E04C
:102D000080914C0390FB80F980934C030E94BC0D92
:102D100080914C038695869586950E94DA04CACFE9
:102D200080914C03982F969596959695933040F404
:102D30009F5F990F990F990F8770892B80934C0390
:102D400080914C038160E0CF80914C0380FF07C0ED
:102D50008E7F80934C030E94BC0D80E0DECF80FD0F
:102D6000A9CF816080934C03813019F489E080936E
:102D70004C0380914C03CACF90934C0381CF26E241
:102D800041EE61EEC7010E94181194CF27E245EE93
:102D900065EEF8CF26E241EE60EEF4CF27E245EE95
:102DA00064EEF0CF26E241EE62EEECCF27E245EE94
:102DB00066EEE8CF28E241E0EBCF809136028160F9
:102DC0008093360295C080913702886080933702E5
:102DD0008FC0809136028260F3CF8091360284608A
:102DE000EFCF809136028860EBCF8091370281600F
:102DF000EDCF809137028260E9CF80913602806109
:102E0000DFCF809136028062DBCF80913602806412
:102E1000D7CF0E942912809136028068D1CF80914D
:102E200036028C60CDCF809137028360CFCF809106
:102E300036028E7FC5CF80913702877FC7CF8091C2
:102E400036028D7FBDCF809136028B7FB9CF8091C6
:102E50003602877FB5CF809137028E7FB7CF8091C2
:102E600037028D7FB3CF809136028F7EA9CF8091BC
:102E700036028F7DA5CF809136028F7BA1CF0E9435
:102E80002912809136028F779BCF80913602837F03
:102E900097CF809137028C7F99CF8091360282FB49
:102EA000992790F921E0922790FB82F990FB83F912
:102EB00087CF80913702982F909591708E7F892BC4
:102EC00090FB81F983CF90913602892F8F7B96FFFB
:102ED000806476CF0E94291290913602892F97FB49
:102EE00087F980586DCF61E08EE090E00E94B123B9
:102EF000609136027091370284E090E00E94CF2307
:102F00000E942912D7CE60E0EFCF90913602892F30
:102F10008F7E94FF806154CF90913602892F8E7FEF
:102F200090FF81604DCF90913702892F877F93FF6B
:102F300088604CCF85E30BC385E317C380914703BB
:102F400080FF12C08E7F809347036091470370918A
:102F500048038091490390914A030E946E0E10929B
:102F600083020E94720BA6CE8160809347038695F0
:102F70000E94A10F9FCE45EA5FE06FEA7FE00E94CA
:102F8000950598CE4FEA5FE065EA7FE0F8CF4EE224
:102F90005FE068E37FE0F3CF48E35FE06EE27FE06D
:102FA000EECF44E15FE061E27FE0E9CF41E25FE044
:102FB00064E17FE0E4CF4AEF5EE067E07FE0DFCFEF
:102FC00047E05FE06AEF7EE0DACF42E45FE064E58D
:102FD0007FE0D5CF44E55FE062E47FE0D0CF81E0E1
:102FE000C7CF65E082E00E94BA0F64CE68E086E059
:102FF000FACF6EE089E0F7CF64E18FE0F4CF67E1CC
:1030000085E1F1CF88E1B4CF62E289E1ECCF83E2E0
:10301000AFCF6AE285E2E7CF0E9429122FEF34E3B7
:103020008CE0215030408040E1F700C000000E9459
:103030004E0B6FEF7FEF90E080E00E94CF230E9465
:1030400001158091370282FB882780F991E089275A
:103050000E941212F701828100811181882309F4F4
:1030600044C0C8010E94EF08D82E682FC8010E94F2
:103070006309B8018D2D0E9406070E942307B82E10
:10308000192F882EF701A280958092949FE09922B3
:1030900080910B028770C1F0DA2CAA20B1F0812F49
:1030A000807F803421F080E28B0D883068F0809141
:1030B000370282FF09C082E00E94B00980910B02B2
:1030C0008770DD24D3948111D12CC12EC2948FE05E
:1030D000C822FBE0FC1508F471C0EC2DF0E0EA58C2
:1030E000FB4D0C94DB2280E0B3CFC8010E94300975
:1030F000D82EBFCF012F0F70107F11F00295007FE7
:10310000AA20B9F0002369F080E28B0D883010F01E
:10311000811009C080911502082B009315020E94AE
:10312000D90F8B2D49C080911402082B00931402F3
:10313000F6CF8B2D0E942710002309F43FC080E2B8
:103140008B0D883010F0811004C0802F0E94B808C9
:1031500006C00095809114020823009314020E9477
:10316000D90F2CC0012F0F70107F103211F0029573
:10317000007F882089F021E0821609F47EC0AA2011
:1031800009F488C0992009F47EC0F701858180FF89
:10319000C8CF8F70858377C02091370222FD45C04C
:1031A000AA20E9F1002339F080911502082B009341
:1031B00015020E94D90F80E00E948110EC2DE8508A
:1031C000FF0B349720F40E94CD040E94E30ADD2017
:1031D000A9F080910B0280FD11C0F7011282859544
:1031E000859585950E94CC09C7010E94C9158091DB
:1031F0000B028595859585950E949E0985E0F701CE
:10320000DE01119601900D928A95E1F709811A81EC
:10321000C8010E943009B8010E940607CCCC80E0AA
:103220000E942710002351F290CFAA20A1F0909184
:103230001602802F892B911003C00E941D10BECF53
:1032400031E09312FACF22FFB9CF891709F4B6CF34
:1032500080931602B3CF911006C00E94B208802F4F
:103260000E941610ABCF81E0981609F4A7CF802FEB
:103270000E9416100E94B208A1CFAA2031F095E05A
:10328000991508F49BCF802FD8CFE4E0E91508F416
:1032900095CFE5CF992019F3F9E38F1231C12FEFC4
:1032A00037EE83E0215030408040E1F700C000005D
:1032B00027C1812F86958695837069F0813009F04A
:1032C0007DCF8B2D912F9370A11002C080E090E0F4
:1032D0000E94830473CF8B2D912F9370A11002C095
:1032E00080E090E00E94A80469CF6A2D8B2D0E9497
:1032F0000B0A64CF912F937009F03FC0A1105ECFED
:103300004B2D429546954770440F440F8B2D8F707F
:1033100090E0042E02C0880F991F0A94E2F730E073
:1033200020E0B4FE09C02FE030E002C0220F331FBE
:103330004A95E2F720953095169516951370123040
:1033400099F078F44091170250911802113039F039
:10335000822B932B842395230E94DC092FCF842B6F
:10336000952B822B932BF8CF822B932B2091170236
:103370003091180282279327EFCF9695AA2011F05B
:10338000912F9170992309F419CF4B2D42954695B1
:103390004770440F440F8B2D8F7090E0042E02C0B5
:1033A000880F991F0A94E2F730E020E0B4FE09C0CC
:1033B0002FE030E002C0220F331F4A95E2F720953C
:1033C0003095169516951370123099F078F4409157
:1033D000340250913502113039F0822B932B842323
:1033E00095230E949909EACE842B952B822B932B4F
:1033F000F8CF822B932B2091340230913502822713
:103400009327EFCF1F70AA2029F0812F0E94CC09AB
:103410008B2D13CF8B2D0E941610812F0E949E0999
:10342000CDCE8B2D92EF891699F1981570F0E0EFC3
:103430008E16D1F0F1EF8F1691F0AA2009F45BC03F
:1034400091106FCE812F8F7127C023EF821639F133
:1034500034EF8312F2CF8091370282FD2EC0812F8C
:103460008F71AA20D9F218C0AA2069F084E08915CA
:1034700008F4A4CE1F7181E090E002C0880F991F6C
:103480001A95E2F7B8CF95E0991508F497CEF2CFE8
:10349000812F8F71A110C2CF0E94CC098FCE90E0F6
:1034A00080E0AA2009F49DCF1F7181E090E002C066
:1034B000880F991F1A95E2F794CFAA2089F01F71FF
:1034C000812F0E94CC098091370282FF07C0E8E07B
:1034D0001E9FC0011124836080930B02812FDCCFDB
:1034E00081E00E94B009F1E0F91508F067CE82E0B2
:1034F0000E94B00963CE992039F0893309F4CFCE08
:103500008B2D0E9427105ACE812F8F7187CF85E097
:10351000DE01119601900D928A95E1F7F701228163
:1035200089819A8121114BCB0E943009182F4FCBF2
:103530000631FCE71F07E1F4809115028A7A91E0D9
:1035400009F490E090939A018111F4CC89E20E94F1
:10355000CC080E94D90FAECB06312CE7120741F5FB
:1035600080919A018111E8CC89E20E94BF08F1CFD5
:1035700003303CE7130709F45CCD50F401159CE7D8
:10358000190709F449CD01301C4709F458CD62CD23
:103590000B35FCE71F0709F4A6CD0C352CE7120705
:1035A00009F44FCD0A351C4709F054CD81E050CDC8
:1035B000809115028272F801E052F847E531F10579
:1035C00008F048CDEE57FB4D0C94DB22F801E85192
:1035D000FC47E730F10508F0BFCFE956FB4D0C94EE
:1035E000DB221F93CF93DF938091D801807F09F076
:1035F00049C08091D501882309F444C080910A0212
:10360000D091D9016091D3017091D401A091D601DC
:10361000B091D701C62FC72316E0D81799F190E0D3
:10362000109711F0CF3F19F401968770F6CF189FCD
:103630009001199F300D1124F901E652FE4F41818E
:103640004713F2CF40814613EFCF42814111ECCFB7
:10365000438154814A1B5B0B483C510528F78091FC
:10366000D8018F7080618093D801F901E152FE4F3B
:1036700080818F708061808383ED91E00E94C91505
:103680000E94E508DF91CF911F910895A1E1B0E07C
:10369000ECE4FBE10C94F8228C0185E0F801DE01FA
:1036A0001D9601900D928A95E1F7F801E28083ED75
:1036B000A82E81E0B82E6091D6017091D7016115D6
:1036C000710509F426C19091D3014091D401892F4D
:1036D00084238F3F09F41DC120813181C380D480B0
:1036E000F090D501F601E61BF70BFF2009F4DCC0D2
:1036F0008091D801582F507FE83CF10508F09FC019
:1037000051116BC0FE2C431314C0921312C0E11070
:1037100010C08F7080618093D801C5010E94C915C7
:103720008091D801F80185838F2D6196EAE00C9491
:103730001423C114D10429F0822F83238F3F09F071
:1037400003C180E0F82FF170DF2E80FF3CC0809134
:103750000A024091D90156E0841315C02D873E8797
:103760008D859E850E942309292F22952F70223056
:10377000F0F0243018F59F70F1F0F8019581907FFA
:10378000D1F4D12C1EC090E0589FF001599FF00D4C
:103790001124E652FE4F6181361306C06081261364
:1037A00003C06281E6120FC001968770D5CF9F706B
:1037B00011F0882331F3805E883018F3C8010E942D
:1037C000C915FD2CB1CFEE2009F4AECF8091D80100
:1037D00081608093D801F12CA7CF431306C09213C8
:1037E00004C0F801EE2009F479C0C8010E94E10983
:1037F000882309F1EE20F9F08091D801803270F031
:103800002091D3013091D40138872F831986DB862C
:10381000CA868C87CE0107960E94C91586E0F801FA
:10382000A3EDB1E001900D928A95E1F70E94F11AA3
:10383000FF24F39479CFC8010E94C915F9CF511123
:103840000AC083ED91E00E94C91586E0F50111924E
:103850008A95E9F7C0CF43130FC092130DC0E11052
:103860000BC0F8018583C8010E94C91586E0F501E7
:1038700011928A95E9F758CFC8010E94E10988237F
:10388000D1F2EE20C1F28091D801803238F220913D
:10389000D3013091D4013A8329831B82DD82CC820B
:1038A0008E83CE010196B8CFE83CF105F8F6FE2CE8
:1038B000EE2009F243131FC092131DC08091D8015E
:1038C00080FD10C0982F907F69F0F8018583903FAC
:1038D00031F0982F907F905F8F70892B8583C8017E
:1038E0000E94C91586E0F801A3EDB1E001900D92A8
:1038F0008A95E1F719CFC8010E94E10981118ECFA5
:103900008091D80181608093D801C8010E94C915B7
:103910000BCFEE2009F48FCFC8010E94E109F82EE9
:10392000882309F488CF86E0F801A3EDB1E0019087
:103930000D928A95E1F78091D3019091D4010E9474
:1039400023090E94F11AF0CE81E08E25FBCEA7E17B
:10395000B0E0EDEAFCE10C94FF224B8B5C8B6D8BAD
:103960007E8B8F8B6111109214021A8A198A85E05E
:10397000FE017396DE011D9601900D928A95E1F786
:1039800086E0FE013D96DE01179601900D928A9524
:10399000E1F7CE0107960E94461B882359F016E0F6
:1039A00080910A029091D901891343C06796E3E0A0
:1039B0000C941B2386E0FE013796DE0111960190E0
:1039C0000D928A95E1F78A859B85892B41F38F813A
:1039D000988589238F3F19F32091D90130E0C901DF
:1039E00001968770992740910A024817190671F4C9
:1039F0000E9429121092D90110920A0286E0E3ED8A
:103A0000F1E0DF011D928A95E9F7C9CF96E0929F18
:103A1000D001939FB00D1124A652BE4FFE013196E6
:103A200001900D929A95E1F78093D9010E94E508E3
:103A3000B6CF819FC001112486529E4F0E94461B23
:103A4000882309F4B3CF80910A0290E00196877031
:103A5000992780930A02A4CF1F920F920FB60F925C
:103A600011242F933F934F935F936F937F938F9383
:103A70009F93AF93BF93CF93DF93EF93FF93D09137
:103A8000E900DF708091EC00C82FC17080FDC0E8B4
:103A90001092E9008091F000877F8093F000789485
:103AA0000E9450121092E9008091F000886080938B
:103AB000F000CD2BCF70C093E900FF91EF91DF9123
:103AC000CF91BF91AF919F918F917F916F915F91B6
:103AD0004F913F912F910F900FBE0F901F9018950F
:103AE0001F920F920FB60F9211242F933F934F9373
:103AF0005F936F937F938F939F93AF93BF93EF9356
:103B0000FF938091E10082FF09C08091E20082FF73
:103B100005C08091E1008B7F8093E1008091DA0005
:103B200080FF24C08091D80080FF20C08091DA00FF
:103B30008E7F8093DA008091D90080FF9DC080E164
:103B400089BD82E189BD09B400FEFDCF81E080938B
:103B5000650380915803811109C00E940B030E94E4
:103B6000AC038091E20084608093E2008091E100E8
:103B700080FF17C08091E20080FF13C08091E200B7
:103B80008E7F8093E2008091E20080618093E2006A
:103B90008091D80080628093D80019BC85E0809322
:103BA00065038091E10084FF2BC08091E20084FFD7
:103BB00027C080E189BD82E189BD89B5982F9170C8
:103BC00080FFFBCF8091D8008F7D8093D8008091BB
:103BD000E1008F7E8093E1008091E2008F7E8093F0
:103BE000E2008091E20081608093E20080916603B0
:103BF000882309F447C084E08093650380916503BE
:103C00008091E10083FF27C08091E20083FF23C001
:103C10008091E100877F8093E10082E080936503DB
:103C2000109266038091E1008E7F8093E100809185
:103C3000E2008E7F8093E2008091E20080618093B9
:103C4000E20042E060E080E00E947A038091F000B0
:103C500088608093F000FF91EF91BF91AF919F91A9
:103C60008F917F916F915F914F913F912F910F9025
:103C70000FBE0F901F90189519BC109265031092FB
:103C8000580374CF8091E30087FD93E09093650320
:103C9000B5CF78941F921FB61F9211248F939F93D4
:103CA000AF93BF938091540390915503A091560315
:103CB000B09157030196A11DB11D809354039093B9
:103CC0005503A0935603B0935703BF91AF919F91B3
:103CD0008F911F901FBE1F9018951F921FB61F92A5
:103CE00011248F939F93AF93BF93809153038111BE
:103CF00013C08091540390915503A0915603B09145
:103D000057034196A11DB11D809354039093550311
:103D1000A0935603B0935703BF91AF919F918F919A
:103D20001F901FBE1F9018950F920FB60F921F92F3
:103D300011242F933F935F936F937F938F939F9360
:103D4000AF93BF93209188003091890080918600C5
:103D5000909187006AEF70E00E94B3226B5F7F4F03
:103D60006217730708F4769ABF91AF919F918F9174
:103D70007F916F915F913F912F911F900F900FBE98
:103D80000F90189576981895CDB7DEB760970FB657
:103D9000F894DEBF0FBECDBF85B7806885BF85B7FD
:103DA000806885BF84B7877F84BF0FB6F894A895D5
:103DB00080916000886180936000109260000FBE67
:103DC00080E890E00FB6F8948093610090936100D2
:103DD0000FBE8AEA96E090939101809390010E9431
:103DE0000B030E94AC038091E20084608093E200A8
:103DF0007894809165038823A1F01091E9001F70E9
:103E00009091EC00892F817090FD80E8182B109222
:103E1000E9008091E80083FD0E9450121F7010930A
:103E2000E90082E084BD93E095BD9AEF97BD809351
:103E30006E0000E511E0D8018D918D018F3F11F0EA
:103E40000E94AC06B1E00C351B07A9F70CE511E0A8
:103E500095E6E92E91E0F92EF80181918F018F3FCF
:103E600011F00E94AC06E016F106B1F788E1EDE32F
:103E7000F2E0DF01282F1D922A95E9F7ECE1F2E04C
:103E8000DF011D928A95E9F7579A6E9A90E080E0DB
:103E90000E94AB23873E9E4F11F00E94781182E072
:103EA00090E00E949D238093550284E090E00E9460
:103EB000AB2390933702809336020E941715EFE3ED
:103EC000FCE93197F1F700C000000E9417158091BE
:103ED0003D0280FF08C06FEF7FEF90E080E00E941E
:103EE000CF230E944E0B83E090E00E949D2390E040
:103EF0000E94DC096E9A769882E08093800089E1C6
:103F0000809381008FEF9FEF9093870080938600CE
:103F10000E94E8110E94E81180913802811136C098
:103F200090E080E00E94AB23873E9E4F21F00E94EC
:103F300078110E94C90F88E090E00E94A523609349
:103F40004703709348038093490390934A036E7F1D
:103F500071F40E94C90F88E090E00E94A52360934D
:103F60004703709348038093490390934A030E9448
:103F70009C05109283028091470380FF04C060E09B
:103F800086950E94660F81E08093380284E091E07C
:103F90009093500380934F0388E1682E712C442442
:103FA0004394222423948091650300E112E185303B
:103FB00009F4B0C00E94171516E5A12E12E0B12E2B
:103FC0000DE3802E02E0902ED401F5012191319174
:103FD0008D919D9142E0EE36F40709F4BAC028179E
:103FE0003907A1F3512CD4010D911D914D01F5011B
:103FF000C190D1905F01C016D10659F1C026D126DB
:10400000312CEE24E394F12CC6018E219F21892BC3
:10401000B1F03C865D8621E0C8018E219F21892B6D
:1040200009F420E02E870E9477048160782F988B16
:104030008F874C855D856E8588890E94A71C339487
:10404000EE0CFF1CF9E03F12DFCFF5013297118330
:10405000008353942CE05212C6CF8FB7F89440914E
:1040600054035091550360915603709157038FBFCD
:1040700092C080916503843009F43BC080E00E94C7
:10408000DA0480E00E94E30A1092830280913A02EF
:1040900081110DC020923A0280914703982F9170B0
:1040A000909339028E7F809347030E94720B109287
:1040B000530320E40FB6F894A895609260000FBEF9
:1040C0002093600083B7817F846083BF83B7816062
:1040D00083BF7894889583B78E7F83BF0FB6F8949B
:1040E000A8958091600088618093600010926000C4
:1040F0000FBE80916403882369F00E941715EDE3D9
:10410000F2E081919191892B09F0E3C142E0E5351C
:10411000F407B9F780916503853009F4AACF0E94AE
:1041200029120E94E8110E94CD040E94E30A109215
:104130003A0280913902882349F0809147038160D7
:104140008093470360E086950E94660F0E94580E98
:1041500031CF2817390709F045CF0E9477048C0129
:1041600080913B0290913C0208171907A1F08FEF54
:104170008F83888719860E9477048160782F9B87B8
:104180008A874F81588569858B850E94A71C10936B
:104190003C0200933B02809183028823D1F18091FD
:1041A0008202E0914703E695E81BE0937E028230AD
:1041B00009F017C1F0E0E359FD4FE4910E2F10E034
:1041C000F8EAEF2EFDE0FF2E80917F02882361F058
:1041D00010927F020E94770490937D0280937C026C
:1041E00010928102109280020E947704E0917C027A
:1041F000F0917D028E1B9F0B8F3F9F4750F4E00F85
:10420000F11FF0937D02E0937C028CE792E0F701CE
:10421000099586E0E6E7F2E0DE01119601900D9245
:104220008A95E1F7109278021092790210927A0240
:1042300010927B028B819C81892B09F44AC080916A
:104240007402909175020E9468049C0190916F0223
:10425000992309F459C125313105D8F19F3F19F04F
:104260009F5F90936F021B81112359F00E948A0671
:104270009FEF11160CF491E0899F802D11248093FB
:1042800078021C81112359F00E948A069FEF1116B3
:104290000CF491E0899F802D112480937902309154
:1042A00078023323B1F020917902222391F045EB7B
:1042B0003403C0011124992309F4FFC090937802BC
:1042C00045EB240390011124332309F4F9C0309302
:1042D00079028D819E81892B09F44AC080917202F6
:1042E000909173020E9468049C019091700299233E
:1042F00009F405C121353105D8F19F3F19F09F5FC1
:10430000909370021D81112359F00E9468069FEF5F
:1043100011160CF491E0899F802D112480937A026C
:104320001E81112359F00E9468069FEF11160CF4AC
:1043300091E0899F802D112480937B0230917A0235
:104340003323B1F020917B02222391F045EB34031B
:10435000C0011124992309F4B6C090937A0245EB69
:10436000240390011124332309F4B0C030937B025D
:1043700046E050E0BE016F5F7F4F86E792E00E940B
:104380009023892B61F48091780290917902892B96
:1043900090917A02892B90917B02892B11F00E94D7
:1043A000410686E0FE013196A6E7B2E001900D924B
:1043B0008A95E1F70E94CD0490916E02891709F465
:1043C000F2CD80936E029FB7F894409154035091C0
:1043D000550360915603709157039FBF0E94E30AF3
:1043E000E2CD863059F4F0E0E659FD4FE4910E2F0E
:1043F00010E0E8E9EE2EEDE0FE2EE6CE893061F425
:10440000E695F0E0E959FD4FE4910E2F10E07CE0D5
:10441000E72E7DE0F72ED8CE8F3061F4E695F0E000
:10442000EC59FD4FE4910E2F10E067EAE62E6CE0A8
:10443000F62ECACE853159F4F0E0EF59FD4FE491E4
:104440000E2F10E059E5E52E5CE0F52EBDCE08E21A
:1044500010E02EEDE22E2BE0F22E883109F4B4CEDE
:10446000833249F4EFE5F2E00591149147E4E42E3C
:104470004DE0F42EA9CE04EF11E097EAE92E9BE07F
:10448000F92E843209F4A0CE853281F48E2F63E0B8
:104490000E949922E92FF0E0E45AFD4FE4910E2F9B
:1044A00010E032ECE32E3DE0F32E8ECE00ED17E06F
:1044B0008BE9E82E85E0F82E87CE4092780200CF77
:1044C0004092790206CF40927A0249CF40927B0215
:1044D0004FCF09BD19BD09B400FEFDCF8091D800B2
:1044E0008F7D8093D8008091E00082608093E0000F
:1044F0008091E00081FDFCCF0E9429120BCE2B3071
:10450000310508F0FCCE34CF2B30310508F0A8CEB1
:10451000E0CEDB018F939F930E940424BF91AF9163
:10452000A29F800D911DA39F900DB29F900D11240D
:104530000895991B79E004C0991F961708F0961BFF
:10454000881F7A95C9F78095089587FB082E06265F
:1045500087FD819567FD61950E9499220EF49195E2
:1045600007FC81950895AA1BBB1B51E107C0AA1F38
:10457000BB1FA617B70710F0A61BB70B881F991F04
:104580005A95A9F780959095BC01CD01089597FBA8
:10459000072E16F4009407D077FD09D00E94B322AD
:1045A00007FC05D03EF4909581959F4F0895709536
:1045B00061957F4F0895EE0FFF1F0590F491E02D58
:1045C00009940E943924332312F48A1B9B0B0C9408
:1045D000EB220E943924B7FF0895821B930B0895A4
:1045E0002F923F924F925F926F927F928F929F9203
:1045F000AF92BF92CF92DF92EF92FF920F931F93F1
:10460000CF93DF93CDB7DEB7CA1BDB0B0FB6F894A1
:10461000DEBF0FBECDBF09942A88398848885F84E1
:104620006E847D848C849B84AA84B984C884DF8052
:10463000EE80FD800C811B81AA81B981CE0FD11D36
:104640000FB6F894DEBF0FBECDBFED0108958F9277
:104650009F92AF92BF92CF92DF92EF92FF92CF9351
:10466000DF93EC01688179818A819B8161157105F5
:104670008105910521F464E279ED8BE597E02DE168
:1046800033EF41E050E00E94E52349015A019B01CC
:10469000AC01A7EAB1E40E9404246B017C01ACEEFA
:1046A000B4EFA50194010E941224DC01CB018C0D12
:1046B0009D1DAE1DBF1DB7FF03C00197A109B048E6
:1046C00088839983AA83BB839F77DF91CF91FF90E3
:1046D000EF90DF90CF90BF90AF909F908F90089514
:1046E0000E942723089580E091E00E9427230895E7
:1046F000B0E0A0E08093000190930101A09302013B
:10470000B09303010895FC014150504030F00190F6
:104710000616D1F73197CF01089588279927089574
:10472000FB01DC0104C08D910190801921F44150FE
:104730005040C8F7881B990B0895F999FECF92BD98
:1047400081BDF89A992780B50895A6E1B0E044E0CC
:1047500050E00C94D723A8E1B0E042E050E00C9484
:10476000D723262FF999FECF92BD81BDF89A0197E4
:1047700000B4021639F01FBA20BD0FB6F894FA9AA9
:10478000F99A0FBE08950396272F0E94B2230E9424
:10479000B123252F0E94B223242F0C94B22301961B
:1047A000272F0E94B2230C94B123DC01CB01FC0122
:1047B000F999FECF06C0F2BDE1BDF89A319600B47A
:1047C0000D9241505040B8F70895052E97FB1EF406
:1047D00000940E94FC2357FD07D00E94172407FC79
:1047E00003D04EF40C94FC235095409530952195C0
:1047F0003F4F4F4F5F4F089590958095709561950D
:104800007F4F8F4F9F4F08950E943924A59F900D91
:10481000B49F900DA49F800D911D11240895B7FFA2
:104820000C9404240E940424821B930B0895A1E29B
:104830001A2EAA1BBB1BFD010DC0AA1FBB1FEE1F1A
:10484000FF1FA217B307E407F50720F0A21BB30B65
:10485000E40BF50B661F771F881F991F1A9469F7E1
:1048600060957095809590959B01AC01BD01CF013D
:104870000895A29FB001B39FC001A39F700D811D39
:104880001124911DB29F700D811D1124911D089559
:10489000F894FFCF2F135713EF145713EF148A1305
:1048A000AB13EF14A814B51417178C171F17E916BC
:1048B000ED162317F11627173317FD168517011765
:1048C000371705173B17631709173F176A170F1795
:1048D00045174D17F5162B17F9162F1713174917EC
:1048E000591773178317E3161B1793177A187A183B
:1048F000B218B21859197519DE18DE187A19021A89
:10490000111A111A9E17BB17C217C717CC17D11748
:10491000D617DB17E017E517EA17EF17F117F617A9
:10492000F917FC17FF170218041807180918CA16F8
:0C493000CE16BF16C616D216D616DA1622
:10493C000100000065043A0B330B2C0B01191A1BF8
:10494C001C1D1E1F20212201020101818283E20015
:10495C00E900EA00B500B600B700CD008301CC0039
:10496C008A019201940121022302240225022602CB
:10497C0027022A02B300B4006F0070009F01CB0124
:10498C00979634943635F0F16667F4F5303132335E
:10499C009091929395000102020202060606090903
:1049AC00090909090F0F0F0F0F0F151515181919F4
:1049BC0019191919191919192324252525252525FE
:00000001FF
